{
  "_format": "hh-sol-artifact-1",
  "contractName": "PantheonNFT",
  "sourceName": "contracts/PantheonNFT.sol",
  "abi": [
    {
      "inputs": [],
      "stateMutability": "nonpayable",
      "type": "constructor"
    },
    {
      "inputs": [
        {
          "internalType": "address",
          "name": "sender",
          "type": "address"
        },
        {
          "internalType": "uint256",
          "name": "tokenId",
          "type": "uint256"
        },
        {
          "internalType": "address",
          "name": "owner",
          "type": "address"
        }
      ],
      "name": "ERC721IncorrectOwner",
      "type": "error"
    },
    {
      "inputs": [
        {
          "internalType": "address",
          "name": "operator",
          "type": "address"
        },
        {
          "internalType": "uint256",
          "name": "tokenId",
          "type": "uint256"
        }
      ],
      "name": "ERC721InsufficientApproval",
      "type": "error"
    },
    {
      "inputs": [
        {
          "internalType": "address",
          "name": "approver",
          "type": "address"
        }
      ],
      "name": "ERC721InvalidApprover",
      "type": "error"
    },
    {
      "inputs": [
        {
          "internalType": "address",
          "name": "operator",
          "type": "address"
        }
      ],
      "name": "ERC721InvalidOperator",
      "type": "error"
    },
    {
      "inputs": [
        {
          "internalType": "address",
          "name": "owner",
          "type": "address"
        }
      ],
      "name": "ERC721InvalidOwner",
      "type": "error"
    },
    {
      "inputs": [
        {
          "internalType": "address",
          "name": "receiver",
          "type": "address"
        }
      ],
      "name": "ERC721InvalidReceiver",
      "type": "error"
    },
    {
      "inputs": [
        {
          "internalType": "address",
          "name": "sender",
          "type": "address"
        }
      ],
      "name": "ERC721InvalidSender",
      "type": "error"
    },
    {
      "inputs": [
        {
          "internalType": "uint256",
          "name": "tokenId",
          "type": "uint256"
        }
      ],
      "name": "ERC721NonexistentToken",
      "type": "error"
    },
    {
      "inputs": [
        {
          "internalType": "address",
          "name": "owner",
          "type": "address"
        }
      ],
      "name": "OwnableInvalidOwner",
      "type": "error"
    },
    {
      "inputs": [
        {
          "internalType": "address",
          "name": "account",
          "type": "address"
        }
      ],
      "name": "OwnableUnauthorizedAccount",
      "type": "error"
    },
    {
      "anonymous": false,
      "inputs": [
        {
          "indexed": true,
          "internalType": "address",
          "name": "owner",
          "type": "address"
        },
        {
          "indexed": true,
          "internalType": "address",
          "name": "approved",
          "type": "address"
        },
        {
          "indexed": true,
          "internalType": "uint256",
          "name": "tokenId",
          "type": "uint256"
        }
      ],
      "name": "Approval",
      "type": "event"
    },
    {
      "anonymous": false,
      "inputs": [
        {
          "indexed": true,
          "internalType": "address",
          "name": "owner",
          "type": "address"
        },
        {
          "indexed": true,
          "internalType": "address",
          "name": "operator",
          "type": "address"
        },
        {
          "indexed": false,
          "internalType": "bool",
          "name": "approved",
          "type": "bool"
        }
      ],
      "name": "ApprovalForAll",
      "type": "event"
    },
    {
      "anonymous": false,
      "inputs": [
        {
          "indexed": false,
          "internalType": "uint256",
          "name": "_fromTokenId",
          "type": "uint256"
        },
        {
          "indexed": false,
          "internalType": "uint256",
          "name": "_toTokenId",
          "type": "uint256"
        }
      ],
      "name": "BatchMetadataUpdate",
      "type": "event"
    },
    {
      "anonymous": false,
      "inputs": [
        {
          "indexed": false,
          "internalType": "uint256",
          "name": "_tokenId",
          "type": "uint256"
        }
      ],
      "name": "MetadataUpdate",
      "type": "event"
    },
    {
      "anonymous": false,
      "inputs": [
        {
          "indexed": true,
          "internalType": "address",
          "name": "previousOwner",
          "type": "address"
        },
        {
          "indexed": true,
          "internalType": "address",
          "name": "newOwner",
          "type": "address"
        }
      ],
      "name": "OwnershipTransferred",
      "type": "event"
    },
    {
      "anonymous": false,
      "inputs": [
        {
          "indexed": true,
          "internalType": "address",
          "name": "from",
          "type": "address"
        },
        {
          "indexed": true,
          "internalType": "address",
          "name": "to",
          "type": "address"
        },
        {
          "indexed": true,
          "internalType": "uint256",
          "name": "tokenId",
          "type": "uint256"
        }
      ],
      "name": "Transfer",
      "type": "event"
    },
    {
      "anonymous": false,
      "inputs": [
        {
          "indexed": true,
          "internalType": "address",
          "name": "minter",
          "type": "address"
        },
        {
          "indexed": false,
          "internalType": "uint256",
          "name": "tokenId",
          "type": "uint256"
        },
        {
          "indexed": false,
          "internalType": "bytes32",
          "name": "debateHash",
          "type": "bytes32"
        }
      ],
      "name": "VerdictMinted",
      "type": "event"
    },
    {
      "anonymous": false,
      "inputs": [
        {
          "indexed": false,
          "internalType": "uint256",
          "name": "tokenId",
          "type": "uint256"
        }
      ],
      "name": "VerdictRevealed",
      "type": "event"
    },
    {
      "inputs": [
        {
          "internalType": "address",
          "name": "to",
          "type": "address"
        },
        {
          "internalType": "uint256",
          "name": "tokenId",
          "type": "uint256"
        }
      ],
      "name": "approve",
      "outputs": [],
      "stateMutability": "nonpayable",
      "type": "function"
    },
    {
      "inputs": [
        {
          "internalType": "address",
          "name": "owner",
          "type": "address"
        }
      ],
      "name": "balanceOf",
      "outputs": [
        {
          "internalType": "uint256",
          "name": "",
          "type": "uint256"
        }
      ],
      "stateMutability": "view",
      "type": "function"
    },
    {
      "inputs": [
        {
          "internalType": "uint256",
          "name": "tokenId",
          "type": "uint256"
        }
      ],
      "name": "canAccessVerdict",
      "outputs": [
        {
          "internalType": "bool",
          "name": "",
          "type": "bool"
        }
      ],
      "stateMutability": "view",
      "type": "function"
    },
    {
      "inputs": [
        {
          "internalType": "uint256",
          "name": "",
          "type": "uint256"
        }
      ],
      "name": "debateHash",
      "outputs": [
        {
          "internalType": "bytes32",
          "name": "",
          "type": "bytes32"
        }
      ],
      "stateMutability": "view",
      "type": "function"
    },
    {
      "inputs": [
        {
          "internalType": "uint256",
          "name": "tokenId",
          "type": "uint256"
        }
      ],
      "name": "getApproved",
      "outputs": [
        {
          "internalType": "address",
          "name": "",
          "type": "address"
        }
      ],
      "stateMutability": "view",
      "type": "function"
    },
    {
      "inputs": [
        {
          "internalType": "address",
          "name": "owner",
          "type": "address"
        },
        {
          "internalType": "address",
          "name": "operator",
          "type": "address"
        }
      ],
      "name": "isApprovedForAll",
      "outputs": [
        {
          "internalType": "bool",
          "name": "",
          "type": "bool"
        }
      ],
      "stateMutability": "view",
      "type": "function"
    },
    {
      "inputs": [
        {
          "internalType": "string",
          "name": "tokenURI",
          "type": "string"
        },
        {
          "internalType": "bytes32",
          "name": "_debateHash",
          "type": "bytes32"
        }
      ],
      "name": "mintVerdict",
      "outputs": [
        {
          "internalType": "uint256",
          "name": "",
          "type": "uint256"
        }
      ],
      "stateMutability": "nonpayable",
      "type": "function"
    },
    {
      "inputs": [],
      "name": "name",
      "outputs": [
        {
          "internalType": "string",
          "name": "",
          "type": "string"
        }
      ],
      "stateMutability": "view",
      "type": "function"
    },
    {
      "inputs": [],
      "name": "owner",
      "outputs": [
        {
          "internalType": "address",
          "name": "",
          "type": "address"
        }
      ],
      "stateMutability": "view",
      "type": "function"
    },
    {
      "inputs": [
        {
          "internalType": "uint256",
          "name": "tokenId",
          "type": "uint256"
        }
      ],
      "name": "ownerOf",
      "outputs": [
        {
          "internalType": "address",
          "name": "",
          "type": "address"
        }
      ],
      "stateMutability": "view",
      "type": "function"
    },
    {
      "inputs": [],
      "name": "renounceOwnership",
      "outputs": [],
      "stateMutability": "nonpayable",
      "type": "function"
    },
    {
      "inputs": [
        {
          "internalType": "uint256",
          "name": "tokenId",
          "type": "uint256"
        }
      ],
      "name": "revealVerdict",
      "outputs": [],
      "stateMutability": "nonpayable",
      "type": "function"
    },
    {
      "inputs": [
        {
          "internalType": "address",
          "name": "from",
          "type": "address"
        },
        {
          "internalType": "address",
          "name": "to",
          "type": "address"
        },
        {
          "internalType": "uint256",
          "name": "tokenId",
          "type": "uint256"
        }
      ],
      "name": "safeTransferFrom",
      "outputs": [],
      "stateMutability": "nonpayable",
      "type": "function"
    },
    {
      "inputs": [
        {
          "internalType": "address",
          "name": "from",
          "type": "address"
        },
        {
          "internalType": "address",
          "name": "to",
          "type": "address"
        },
        {
          "internalType": "uint256",
          "name": "tokenId",
          "type": "uint256"
        },
        {
          "internalType": "bytes",
          "name": "data",
          "type": "bytes"
        }
      ],
      "name": "safeTransferFrom",
      "outputs": [],
      "stateMutability": "nonpayable",
      "type": "function"
    },
    {
      "inputs": [
        {
          "internalType": "address",
          "name": "operator",
          "type": "address"
        },
        {
          "internalType": "bool",
          "name": "approved",
          "type": "bool"
        }
      ],
      "name": "setApprovalForAll",
      "outputs": [],
      "stateMutability": "nonpayable",
      "type": "function"
    },
    {
      "inputs": [
        {
          "internalType": "bytes4",
          "name": "interfaceId",
          "type": "bytes4"
        }
      ],
      "name": "supportsInterface",
      "outputs": [
        {
          "internalType": "bool",
          "name": "",
          "type": "bool"
        }
      ],
      "stateMutability": "view",
      "type": "function"
    },
    {
      "inputs": [],
      "name": "symbol",
      "outputs": [
        {
          "internalType": "string",
          "name": "",
          "type": "string"
        }
      ],
      "stateMutability": "view",
      "type": "function"
    },
    {
      "inputs": [
        {
          "internalType": "uint256",
          "name": "tokenId",
          "type": "uint256"
        }
      ],
      "name": "tokenURI",
      "outputs": [
        {
          "internalType": "string",
          "name": "",
          "type": "string"
        }
      ],
      "stateMutability": "view",
      "type": "function"
    },
    {
      "inputs": [],
      "name": "totalSupply",
      "outputs": [
        {
          "internalType": "uint256",
          "name": "",
          "type": "uint256"
        }
      ],
      "stateMutability": "view",
      "type": "function"
    },
    {
      "inputs": [
        {
          "internalType": "address",
          "name": "from",
          "type": "address"
        },
        {
          "internalType": "address",
          "name": "to",
          "type": "address"
        },
        {
          "internalType": "uint256",
          "name": "tokenId",
          "type": "uint256"
        }
      ],
      "name": "transferFrom",
      "outputs": [],
      "stateMutability": "nonpayable",
      "type": "function"
    },
    {
      "inputs": [
        {
          "internalType": "address",
          "name": "newOwner",
          "type": "address"
        }
      ],
      "name": "transferOwnership",
      "outputs": [],
      "stateMutability": "nonpayable",
      "type": "function"
    },
    {
      "inputs": [
        {
          "internalType": "uint256",
          "name": "",
          "type": "uint256"
        }
      ],
      "name": "verdictRevealed",
      "outputs": [
        {
          "internalType": "bool",
          "name": "",
          "type": "bool"
        }
      ],
      "stateMutability": "view",
      "type": "function"
    }
  ],
  "bytecode": "0x608060405234801561000f575f80fd5b50336040518060400160405280600b81526020017f50616e7468656f6e2058490000000000000000000000000000000000000000008152506040518060400160405280600481526020017f5058584900000000000000000000000000000000000000000000000000000000815250815f908161008b9190610420565b50806001908161009b9190610420565b5050505f73ffffffffffffffffffffffffffffffffffffffff168173ffffffffffffffffffffffffffffffffffffffff160361010e575f6040517f1e4fbdf7000000000000000000000000000000000000000000000000000000008152600401610105919061052e565b60405180910390fd5b61011d8161012360201b60201c565b50610547565b5f60075f9054906101000a900473ffffffffffffffffffffffffffffffffffffffff1690508160075f6101000a81548173ffffffffffffffffffffffffffffffffffffffff021916908373ffffffffffffffffffffffffffffffffffffffff1602179055508173ffffffffffffffffffffffffffffffffffffffff168173ffffffffffffffffffffffffffffffffffffffff167f8be0079c531659141344cd1fd0a4f28419497f9722a3daafe3b4186f6b6457e060405160405180910390a35050565b5f81519050919050565b7f4e487b71000000000000000000000000000000000000000000000000000000005f52604160045260245ffd5b7f4e487b71000000000000000000000000000000000000000000000000000000005f52602260045260245ffd5b5f600282049050600182168061026157607f821691505b6020821081036102745761027361021d565b5b50919050565b5f819050815f5260205f209050919050565b5f6020601f8301049050919050565b5f82821b905092915050565b5f600883026102d67fffffffffffffffffffffffffffffffffffffffffffffffffffffffffffffffff8261029b565b6102e0868361029b565b95508019841693508086168417925050509392505050565b5f819050919050565b5f819050919050565b5f61032461031f61031a846102f8565b610301565b6102f8565b9050919050565b5f819050919050565b61033d8361030a565b6103516103498261032b565b8484546102a7565b825550505050565b5f90565b610365610359565b610370818484610334565b505050565b5b81811015610393576103885f8261035d565b600181019050610376565b5050565b601f8211156103d8576103a98161027a565b6103b28461028c565b810160208510156103c1578190505b6103d56103cd8561028c565b830182610375565b50505b505050565b5f82821c905092915050565b5f6103f85f19846008026103dd565b1980831691505092915050565b5f61041083836103e9565b9150826002028217905092915050565b610429826101e6565b67ffffffffffffffff811115610442576104416101f0565b5b61044c825461024a565b610457828285610397565b5f60209050601f831160018114610488575f8415610476578287015190505b6104808582610405565b8655506104e7565b601f1984166104968661027a565b5f5b828110156104bd57848901518255600182019150602085019450602081019050610498565b868310156104da57848901516104d6601f8916826103e9565b8355505b6001600288020188555050505b505050505050565b5f73ffffffffffffffffffffffffffffffffffffffff82169050919050565b5f610518826104ef565b9050919050565b6105288161050e565b82525050565b5f6020820190506105415f83018461051f565b92915050565b6129e5806105545f395ff3fe608060405234801561000f575f80fd5b5060043610610140575f3560e01c8063715018a6116100b6578063b88d4fde1161007a578063b88d4fde14610386578063bcbb3ae1146103a2578063c87b56dd146103d2578063e8d5f3b314610402578063e985e9c51461041e578063f2fde38b1461044e57610140565b8063715018a6146102f45780638da5cb5b146102fe5780638fbb3e6a1461031c57806395d89b411461034c578063a22cb4651461036a57610140565b806323b872dd1161010857806323b872dd146101fc57806339ec0bae1461021857806342842e0e146102485780634c35ab0d146102645780636352211e1461029457806370a08231146102c457610140565b806301ffc9a71461014457806306fdde0314610174578063081812fc14610192578063095ea7b3146101c257806318160ddd146101de575b5f80fd5b61015e60048036038101906101599190611e0c565b61046a565b60405161016b9190611e51565b60405180910390f35b61017c6104ca565b6040516101899190611eda565b60405180910390f35b6101ac60048036038101906101a79190611f2d565b610559565b6040516101b99190611f97565b60405180910390f35b6101dc60048036038101906101d79190611fda565b610574565b005b6101e661058a565b6040516101f39190612027565b60405180910390f35b61021660048036038101906102119190612040565b610593565b005b610232600480360381019061022d9190611f2d565b610692565b60405161023f9190611e51565b60405180910390f35b610262600480360381019061025d9190612040565b6106f7565b005b61027e60048036038101906102799190612124565b610716565b60405161028b9190612027565b60405180910390f35b6102ae60048036038101906102a99190611f2d565b6107fc565b6040516102bb9190611f97565b60405180910390f35b6102de60048036038101906102d99190612181565b61080d565b6040516102eb9190612027565b60405180910390f35b6102fc6108c3565b005b6103066108d6565b6040516103139190611f97565b60405180910390f35b61033660048036038101906103319190611f2d565b6108fe565b6040516103439190611e51565b60405180910390f35b61035461091b565b6040516103619190611eda565b60405180910390f35b610384600480360381019061037f91906121d6565b6109ab565b005b6103a0600480360381019061039b919061233c565b6109c1565b005b6103bc60048036038101906103b79190611f2d565b6109e6565b6040516103c991906123cb565b60405180910390f35b6103ec60048036038101906103e79190611f2d565b6109fb565b6040516103f99190611eda565b60405180910390f35b61041c60048036038101906104179190611f2d565b610a77565b005b610438600480360381019061043391906123e4565b610b58565b6040516104459190611e51565b60405180910390f35b61046860048036038101906104639190612181565b610be6565b005b5f634906490660e01b7bffffffffffffffffffffffffffffffffffffffffffffffffffffffff1916827bffffffffffffffffffffffffffffffffffffffffffffffffffffffff191614806104c357506104c282610c6a565b5b9050919050565b60605f80546104d89061244f565b80601f01602080910402602001604051908101604052809291908181526020018280546105049061244f565b801561054f5780601f106105265761010080835404028352916020019161054f565b820191905f5260205f20905b81548152906001019060200180831161053257829003601f168201915b5050505050905090565b5f61056382610d4b565b5061056d82610dd1565b9050919050565b6105868282610581610e0a565b610e11565b5050565b5f600854905090565b5f73ffffffffffffffffffffffffffffffffffffffff168273ffffffffffffffffffffffffffffffffffffffff1603610603575f6040517f64a0ae920000000000000000000000000000000000000000000000000000000081526004016105fa9190611f97565b60405180910390fd5b5f6106168383610611610e0a565b610e23565b90508373ffffffffffffffffffffffffffffffffffffffff168173ffffffffffffffffffffffffffffffffffffffff161461068c578382826040517f64283d7b0000000000000000000000000000000000000000000000000000000081526004016106839392919061247f565b60405180910390fd5b50505050565b5f3373ffffffffffffffffffffffffffffffffffffffff166106b3836107fc565b73ffffffffffffffffffffffffffffffffffffffff161480156106f05750600a5f8381526020019081526020015f205f9054906101000a900460ff165b9050919050565b61071183838360405180602001604052805f8152506109c1565b505050565b5f60085f815480929190610729906124e1565b91905055505f600854905061073e338261102e565b61078b8186868080601f0160208091040260200160405190810160405280939291908181526020018383808284375f81840152601f19601f8201169050808301925050505050505061104b565b8260095f8381526020019081526020015f20819055503373ffffffffffffffffffffffffffffffffffffffff167f8c86da3cac1d09675238eaf82d72f4c041698843903a81305ff3ca8443987bd482856040516107e9929190612528565b60405180910390a2809150509392505050565b5f61080682610d4b565b9050919050565b5f8073ffffffffffffffffffffffffffffffffffffffff168273ffffffffffffffffffffffffffffffffffffffff160361087e575f6040517f89c62b640000000000000000000000000000000000000000000000000000000081526004016108759190611f97565b60405180910390fd5b60035f8373ffffffffffffffffffffffffffffffffffffffff1673ffffffffffffffffffffffffffffffffffffffff1681526020019081526020015f20549050919050565b6108cb6110a5565b6108d45f61112c565b565b5f60075f9054906101000a900473ffffffffffffffffffffffffffffffffffffffff16905090565b600a602052805f5260405f205f915054906101000a900460ff1681565b60606001805461092a9061244f565b80601f01602080910402602001604051908101604052809291908181526020018280546109569061244f565b80156109a15780601f10610978576101008083540402835291602001916109a1565b820191905f5260205f20905b81548152906001019060200180831161098457829003601f168201915b5050505050905090565b6109bd6109b6610e0a565b83836111ef565b5050565b6109cc848484610593565b6109e06109d7610e0a565b858585856113c8565b50505050565b6009602052805f5260405f205f915090505481565b6060610a0682610d4b565b505f610a10611574565b90505f610a1c8461158a565b90505f825103610a30578092505050610a72565b5f81511115610a64578181604051602001610a4c929190612589565b60405160208183030381529060405292505050610a72565b610a6d8461162b565b925050505b919050565b610a7f6110a5565b5f73ffffffffffffffffffffffffffffffffffffffff16610a9f82611691565b73ffffffffffffffffffffffffffffffffffffffff1603610af5576040517f08c379a0000000000000000000000000000000000000000000000000000000008152600401610aec906125f6565b60405180910390fd5b6001600a5f8381526020019081526020015f205f6101000a81548160ff0219169083151502179055507fd5ad01cdfeca8fd1caf21e22065b9f98e41659672580bceb50f37dce0118f1e581604051610b4d9190612027565b60405180910390a150565b5f60055f8473ffffffffffffffffffffffffffffffffffffffff1673ffffffffffffffffffffffffffffffffffffffff1681526020019081526020015f205f8373ffffffffffffffffffffffffffffffffffffffff1673ffffffffffffffffffffffffffffffffffffffff1681526020019081526020015f205f9054906101000a900460ff16905092915050565b610bee6110a5565b5f73ffffffffffffffffffffffffffffffffffffffff168173ffffffffffffffffffffffffffffffffffffffff1603610c5e575f6040517f1e4fbdf7000000000000000000000000000000000000000000000000000000008152600401610c559190611f97565b60405180910390fd5b610c678161112c565b50565b5f7f80ac58cd000000000000000000000000000000000000000000000000000000007bffffffffffffffffffffffffffffffffffffffffffffffffffffffff1916827bffffffffffffffffffffffffffffffffffffffffffffffffffffffff19161480610d3457507f5b5e139f000000000000000000000000000000000000000000000000000000007bffffffffffffffffffffffffffffffffffffffffffffffffffffffff1916827bffffffffffffffffffffffffffffffffffffffffffffffffffffffff1916145b80610d445750610d43826116ca565b5b9050919050565b5f80610d5683611691565b90505f73ffffffffffffffffffffffffffffffffffffffff168173ffffffffffffffffffffffffffffffffffffffff1603610dc857826040517f7e273289000000000000000000000000000000000000000000000000000000008152600401610dbf9190612027565b60405180910390fd5b80915050919050565b5f60045f8381526020019081526020015f205f9054906101000a900473ffffffffffffffffffffffffffffffffffffffff169050919050565b5f33905090565b610e1e8383836001611733565b505050565b5f80610e2e84611691565b90505f73ffffffffffffffffffffffffffffffffffffffff168373ffffffffffffffffffffffffffffffffffffffff1614610e6f57610e6e8184866118f2565b5b5f73ffffffffffffffffffffffffffffffffffffffff168173ffffffffffffffffffffffffffffffffffffffff1614610efa57610eae5f855f80611733565b600160035f8373ffffffffffffffffffffffffffffffffffffffff1673ffffffffffffffffffffffffffffffffffffffff1681526020019081526020015f205f82825403925050819055505b5f73ffffffffffffffffffffffffffffffffffffffff168573ffffffffffffffffffffffffffffffffffffffff1614610f7957600160035f8773ffffffffffffffffffffffffffffffffffffffff1673ffffffffffffffffffffffffffffffffffffffff1681526020019081526020015f205f82825401925050819055505b8460025f8681526020019081526020015f205f6101000a81548173ffffffffffffffffffffffffffffffffffffffff021916908373ffffffffffffffffffffffffffffffffffffffff160217905550838573ffffffffffffffffffffffffffffffffffffffff168273ffffffffffffffffffffffffffffffffffffffff167fddf252ad1be2c89b69c2b068fc378daa952ba7f163c4a11628f55a4df523b3ef60405160405180910390a4809150509392505050565b611047828260405180602001604052805f8152506119b5565b5050565b8060065f8481526020019081526020015f20908161106991906127b1565b507ff8e1a15aba9398e019f0b49df1a4fde98ee17ae345cb5f6b5e2c27f5033e8ce7826040516110999190612027565b60405180910390a15050565b6110ad610e0a565b73ffffffffffffffffffffffffffffffffffffffff166110cb6108d6565b73ffffffffffffffffffffffffffffffffffffffff161461112a576110ee610e0a565b6040517f118cdaa70000000000000000000000000000000000000000000000000000000081526004016111219190611f97565b60405180910390fd5b565b5f60075f9054906101000a900473ffffffffffffffffffffffffffffffffffffffff1690508160075f6101000a81548173ffffffffffffffffffffffffffffffffffffffff021916908373ffffffffffffffffffffffffffffffffffffffff1602179055508173ffffffffffffffffffffffffffffffffffffffff168173ffffffffffffffffffffffffffffffffffffffff167f8be0079c531659141344cd1fd0a4f28419497f9722a3daafe3b4186f6b6457e060405160405180910390a35050565b5f73ffffffffffffffffffffffffffffffffffffffff168373ffffffffffffffffffffffffffffffffffffffff160361125f575f6040517fa9fbf51f0000000000000000000000000000000000000000000000000000000081526004016112569190611f97565b60405180910390fd5b5f73ffffffffffffffffffffffffffffffffffffffff168273ffffffffffffffffffffffffffffffffffffffff16036112cf57816040517f5b08ba180000000000000000000000000000000000000000000000000000000081526004016112c69190611f97565b60405180910390fd5b8060055f8573ffffffffffffffffffffffffffffffffffffffff1673ffffffffffffffffffffffffffffffffffffffff1681526020019081526020015f205f8473ffffffffffffffffffffffffffffffffffffffff1673ffffffffffffffffffffffffffffffffffffffff1681526020019081526020015f205f6101000a81548160ff0219169083151502179055508173ffffffffffffffffffffffffffffffffffffffff168373ffffffffffffffffffffffffffffffffffffffff167f17307eab39ab6107e8899845ad3d59bd9653f200f220920489ca2b5937696c31836040516113bb9190611e51565b60405180910390a3505050565b5f8373ffffffffffffffffffffffffffffffffffffffff163b111561156d578273ffffffffffffffffffffffffffffffffffffffff1663150b7a02868685856040518563ffffffff1660e01b815260040161142694939291906128d2565b6020604051808303815f875af192505050801561146157506040513d601f19601f8201168201806040525081019061145e9190612930565b60015b6114e2573d805f811461148f576040519150601f19603f3d011682016040523d82523d5f602084013e611494565b606091505b505f8151036114da57836040517f64a0ae920000000000000000000000000000000000000000000000000000000081526004016114d19190611f97565b60405180910390fd5b805160208201fd5b63150b7a0260e01b7bffffffffffffffffffffffffffffffffffffffffffffffffffffffff1916817bffffffffffffffffffffffffffffffffffffffffffffffffffffffff19161461156b57836040517f64a0ae920000000000000000000000000000000000000000000000000000000081526004016115629190611f97565b60405180910390fd5b505b5050505050565b606060405180602001604052805f815250905090565b606060065f8381526020019081526020015f2080546115a89061244f565b80601f01602080910402602001604051908101604052809291908181526020018280546115d49061244f565b801561161f5780601f106115f65761010080835404028352916020019161161f565b820191905f5260205f20905b81548152906001019060200180831161160257829003601f168201915b50505050509050919050565b606061163682610d4b565b505f611640611574565b90505f81511161165e5760405180602001604052805f815250611689565b80611668846119d8565b604051602001611679929190612589565b6040516020818303038152906040525b915050919050565b5f60025f8381526020019081526020015f205f9054906101000a900473ffffffffffffffffffffffffffffffffffffffff169050919050565b5f7f01ffc9a7000000000000000000000000000000000000000000000000000000007bffffffffffffffffffffffffffffffffffffffffffffffffffffffff1916827bffffffffffffffffffffffffffffffffffffffffffffffffffffffff1916149050919050565b808061176b57505f73ffffffffffffffffffffffffffffffffffffffff168273ffffffffffffffffffffffffffffffffffffffff1614155b1561189d575f61177a84610d4b565b90505f73ffffffffffffffffffffffffffffffffffffffff168373ffffffffffffffffffffffffffffffffffffffff16141580156117e457508273ffffffffffffffffffffffffffffffffffffffff168173ffffffffffffffffffffffffffffffffffffffff1614155b80156117f757506117f58184610b58565b155b1561183957826040517fa9fbf51f0000000000000000000000000000000000000000000000000000000081526004016118309190611f97565b60405180910390fd5b811561189b57838573ffffffffffffffffffffffffffffffffffffffff168273ffffffffffffffffffffffffffffffffffffffff167f8c5be1e5ebec7d5bd14f71427d1e84f3dd0314c0f7b2291e5b200ac8c7c3b92560405160405180910390a45b505b8360045f8581526020019081526020015f205f6101000a81548173ffffffffffffffffffffffffffffffffffffffff021916908373ffffffffffffffffffffffffffffffffffffffff16021790555050505050565b6118fd838383611aa2565b6119b0575f73ffffffffffffffffffffffffffffffffffffffff168373ffffffffffffffffffffffffffffffffffffffff160361197157806040517f7e2732890000000000000000000000000000000000000000000000000000000081526004016119689190612027565b60405180910390fd5b81816040517f177e802f0000000000000000000000000000000000000000000000000000000081526004016119a792919061295b565b60405180910390fd5b505050565b6119bf8383611b62565b6119d36119ca610e0a565b5f8585856113c8565b505050565b60605f60016119e684611c55565b0190505f8167ffffffffffffffff811115611a0457611a03612218565b5b6040519080825280601f01601f191660200182016040528015611a365781602001600182028036833780820191505090505b5090505f82602083010190505b600115611a97578080600190039150507f3031323334353637383961626364656600000000000000000000000000000000600a86061a8153600a8581611a8c57611a8b612982565b5b0494505f8503611a43575b819350505050919050565b5f8073ffffffffffffffffffffffffffffffffffffffff168373ffffffffffffffffffffffffffffffffffffffff1614158015611b5957508273ffffffffffffffffffffffffffffffffffffffff168473ffffffffffffffffffffffffffffffffffffffff161480611b1a5750611b198484610b58565b5b80611b5857508273ffffffffffffffffffffffffffffffffffffffff16611b4083610dd1565b73ffffffffffffffffffffffffffffffffffffffff16145b5b90509392505050565b5f73ffffffffffffffffffffffffffffffffffffffff168273ffffffffffffffffffffffffffffffffffffffff1603611bd2575f6040517f64a0ae92000000000000000000000000000000000000000000000000000000008152600401611bc99190611f97565b60405180910390fd5b5f611bde83835f610e23565b90505f73ffffffffffffffffffffffffffffffffffffffff168173ffffffffffffffffffffffffffffffffffffffff1614611c50575f6040517f73c6ac6e000000000000000000000000000000000000000000000000000000008152600401611c479190611f97565b60405180910390fd5b505050565b5f805f90507a184f03e93ff9f4daa797ed6e38ed64bf6a1f0100000000000000008310611cb1577a184f03e93ff9f4daa797ed6e38ed64bf6a1f0100000000000000008381611ca757611ca6612982565b5b0492506040810190505b6d04ee2d6d415b85acef81000000008310611cee576d04ee2d6d415b85acef81000000008381611ce457611ce3612982565b5b0492506020810190505b662386f26fc100008310611d1d57662386f26fc100008381611d1357611d12612982565b5b0492506010810190505b6305f5e1008310611d46576305f5e1008381611d3c57611d3b612982565b5b0492506008810190505b6127108310611d6b576127108381611d6157611d60612982565b5b0492506004810190505b60648310611d8e5760648381611d8457611d83612982565b5b0492506002810190505b600a8310611d9d576001810190505b80915050919050565b5f604051905090565b5f80fd5b5f80fd5b5f7fffffffff0000000000000000000000000000000000000000000000000000000082169050919050565b611deb81611db7565b8114611df5575f80fd5b50565b5f81359050611e0681611de2565b92915050565b5f60208284031215611e2157611e20611daf565b5b5f611e2e84828501611df8565b91505092915050565b5f8115159050919050565b611e4b81611e37565b82525050565b5f602082019050611e645f830184611e42565b92915050565b5f81519050919050565b5f82825260208201905092915050565b8281835e5f83830152505050565b5f601f19601f8301169050919050565b5f611eac82611e6a565b611eb68185611e74565b9350611ec6818560208601611e84565b611ecf81611e92565b840191505092915050565b5f6020820190508181035f830152611ef28184611ea2565b905092915050565b5f819050919050565b611f0c81611efa565b8114611f16575f80fd5b50565b5f81359050611f2781611f03565b92915050565b5f60208284031215611f4257611f41611daf565b5b5f611f4f84828501611f19565b91505092915050565b5f73ffffffffffffffffffffffffffffffffffffffff82169050919050565b5f611f8182611f58565b9050919050565b611f9181611f77565b82525050565b5f602082019050611faa5f830184611f88565b92915050565b611fb981611f77565b8114611fc3575f80fd5b50565b5f81359050611fd481611fb0565b92915050565b5f8060408385031215611ff057611fef611daf565b5b5f611ffd85828601611fc6565b925050602061200e85828601611f19565b9150509250929050565b61202181611efa565b82525050565b5f60208201905061203a5f830184612018565b92915050565b5f805f6060848603121561205757612056611daf565b5b5f61206486828701611fc6565b935050602061207586828701611fc6565b925050604061208686828701611f19565b9150509250925092565b5f80fd5b5f80fd5b5f80fd5b5f8083601f8401126120b1576120b0612090565b5b8235905067ffffffffffffffff8111156120ce576120cd612094565b5b6020830191508360018202830111156120ea576120e9612098565b5b9250929050565b5f819050919050565b612103816120f1565b811461210d575f80fd5b50565b5f8135905061211e816120fa565b92915050565b5f805f6040848603121561213b5761213a611daf565b5b5f84013567ffffffffffffffff81111561215857612157611db3565b5b6121648682870161209c565b9350935050602061217786828701612110565b9150509250925092565b5f6020828403121561219657612195611daf565b5b5f6121a384828501611fc6565b91505092915050565b6121b581611e37565b81146121bf575f80fd5b50565b5f813590506121d0816121ac565b92915050565b5f80604083850312156121ec576121eb611daf565b5b5f6121f985828601611fc6565b925050602061220a858286016121c2565b9150509250929050565b5f80fd5b7f4e487b71000000000000000000000000000000000000000000000000000000005f52604160045260245ffd5b61224e82611e92565b810181811067ffffffffffffffff8211171561226d5761226c612218565b5b80604052505050565b5f61227f611da6565b905061228b8282612245565b919050565b5f67ffffffffffffffff8211156122aa576122a9612218565b5b6122b382611e92565b9050602081019050919050565b828183375f83830152505050565b5f6122e06122db84612290565b612276565b9050828152602081018484840111156122fc576122fb612214565b5b6123078482856122c0565b509392505050565b5f82601f83011261232357612322612090565b5b81356123338482602086016122ce565b91505092915050565b5f805f806080858703121561235457612353611daf565b5b5f61236187828801611fc6565b945050602061237287828801611fc6565b935050604061238387828801611f19565b925050606085013567ffffffffffffffff8111156123a4576123a3611db3565b5b6123b08782880161230f565b91505092959194509250565b6123c5816120f1565b82525050565b5f6020820190506123de5f8301846123bc565b92915050565b5f80604083850312156123fa576123f9611daf565b5b5f61240785828601611fc6565b925050602061241885828601611fc6565b9150509250929050565b7f4e487b71000000000000000000000000000000000000000000000000000000005f52602260045260245ffd5b5f600282049050600182168061246657607f821691505b60208210810361247957612478612422565b5b50919050565b5f6060820190506124925f830186611f88565b61249f6020830185612018565b6124ac6040830184611f88565b949350505050565b7f4e487b71000000000000000000000000000000000000000000000000000000005f52601160045260245ffd5b5f6124eb82611efa565b91507fffffffffffffffffffffffffffffffffffffffffffffffffffffffffffffffff820361251d5761251c6124b4565b5b600182019050919050565b5f60408201905061253b5f830185612018565b61254860208301846123bc565b9392505050565b5f81905092915050565b5f61256382611e6a565b61256d818561254f565b935061257d818560208601611e84565b80840191505092915050565b5f6125948285612559565b91506125a08284612559565b91508190509392505050565b7f546f6b656e20646f6573206e6f742065786973740000000000000000000000005f82015250565b5f6125e0601483611e74565b91506125eb826125ac565b602082019050919050565b5f6020820190508181035f83015261260d816125d4565b9050919050565b5f819050815f5260205f209050919050565b5f6020601f8301049050919050565b5f82821b905092915050565b5f600883026126707fffffffffffffffffffffffffffffffffffffffffffffffffffffffffffffffff82612635565b61267a8683612635565b95508019841693508086168417925050509392505050565b5f819050919050565b5f6126b56126b06126ab84611efa565b612692565b611efa565b9050919050565b5f819050919050565b6126ce8361269b565b6126e26126da826126bc565b848454612641565b825550505050565b5f90565b6126f66126ea565b6127018184846126c5565b505050565b5b81811015612724576127195f826126ee565b600181019050612707565b5050565b601f8211156127695761273a81612614565b61274384612626565b81016020851015612752578190505b61276661275e85612626565b830182612706565b50505b505050565b5f82821c905092915050565b5f6127895f198460080261276e565b1980831691505092915050565b5f6127a1838361277a565b9150826002028217905092915050565b6127ba82611e6a565b67ffffffffffffffff8111156127d3576127d2612218565b5b6127dd825461244f565b6127e8828285612728565b5f60209050601f831160018114612819575f8415612807578287015190505b6128118582612796565b865550612878565b601f19841661282786612614565b5f5b8281101561284e57848901518255600182019150602085019450602081019050612829565b8683101561286b5784890151612867601f89168261277a565b8355505b6001600288020188555050505b505050505050565b5f81519050919050565b5f82825260208201905092915050565b5f6128a482612880565b6128ae818561288a565b93506128be818560208601611e84565b6128c781611e92565b840191505092915050565b5f6080820190506128e55f830187611f88565b6128f26020830186611f88565b6128ff6040830185612018565b8181036060830152612911818461289a565b905095945050505050565b5f8151905061292a81611de2565b92915050565b5f6020828403121561294557612944611daf565b5b5f6129528482850161291c565b91505092915050565b5f60408201905061296e5f830185611f88565b61297b6020830184612018565b9392505050565b7f4e487b71000000000000000000000000000000000000000000000000000000005f52601260045260245ffdfea26469706673582212204f5f0eaf024b29706cb788f0181a6b4af509ded86bc6b093056dccd0ee64875e64736f6c63430008190033",
  "linkReferences": {},
  "deployedLinkReferences": {}
}